{
  "_format": "hh-sol-artifact-1",
  "contractName": "NFTixBooth",
  "sourceName": "contracts/NFTixBooth.sol",
  "abi": [
    {
      "inputs": [],
      "stateMutability": "nonpayable",
      "type": "constructor"
    },
    {
      "anonymous": false,
      "inputs": [
        {
          "indexed": true,
          "internalType": "address",
          "name": "owner",
          "type": "address"
        },
        {
          "indexed": true,
          "internalType": "address",
          "name": "approved",
          "type": "address"
        },
        {
          "indexed": true,
          "internalType": "uint256",
          "name": "tokenId",
          "type": "uint256"
        }
      ],
      "name": "Approval",
      "type": "event"
    },
    {
      "anonymous": false,
      "inputs": [
        {
          "indexed": true,
          "internalType": "address",
          "name": "owner",
          "type": "address"
        },
        {
          "indexed": true,
          "internalType": "address",
          "name": "operator",
          "type": "address"
        },
        {
          "indexed": false,
          "internalType": "bool",
          "name": "approved",
          "type": "bool"
        }
      ],
      "name": "ApprovalForAll",
      "type": "event"
    },
    {
      "anonymous": false,
      "inputs": [
        {
          "indexed": true,
          "internalType": "address",
          "name": "previousOwner",
          "type": "address"
        },
        {
          "indexed": true,
          "internalType": "address",
          "name": "newOwner",
          "type": "address"
        }
      ],
      "name": "OwnershipTransferred",
      "type": "event"
    },
    {
      "anonymous": false,
      "inputs": [
        {
          "indexed": true,
          "internalType": "address",
          "name": "from",
          "type": "address"
        },
        {
          "indexed": true,
          "internalType": "address",
          "name": "to",
          "type": "address"
        },
        {
          "indexed": true,
          "internalType": "uint256",
          "name": "tokenId",
          "type": "uint256"
        }
      ],
      "name": "Transfer",
      "type": "event"
    },
    {
      "inputs": [
        {
          "internalType": "address",
          "name": "to",
          "type": "address"
        },
        {
          "internalType": "uint256",
          "name": "tokenId",
          "type": "uint256"
        }
      ],
      "name": "approve",
      "outputs": [],
      "stateMutability": "nonpayable",
      "type": "function"
    },
    {
      "inputs": [],
      "name": "availableTicketCount",
      "outputs": [
        {
          "internalType": "uint256",
          "name": "",
          "type": "uint256"
        }
      ],
      "stateMutability": "view",
      "type": "function"
    },
    {
      "inputs": [],
      "name": "availableTickets",
      "outputs": [
        {
          "internalType": "uint256",
          "name": "",
          "type": "uint256"
        }
      ],
      "stateMutability": "view",
      "type": "function"
    },
    {
      "inputs": [
        {
          "internalType": "address",
          "name": "owner",
          "type": "address"
        }
      ],
      "name": "balanceOf",
      "outputs": [
        {
          "internalType": "uint256",
          "name": "",
          "type": "uint256"
        }
      ],
      "stateMutability": "view",
      "type": "function"
    },
    {
      "inputs": [
        {
          "internalType": "address",
          "name": "addy",
          "type": "address"
        }
      ],
      "name": "checkIn",
      "outputs": [],
      "stateMutability": "nonpayable",
      "type": "function"
    },
    {
      "inputs": [
        {
          "internalType": "address",
          "name": "",
          "type": "address"
        }
      ],
      "name": "checkIns",
      "outputs": [
        {
          "internalType": "bool",
          "name": "",
          "type": "bool"
        }
      ],
      "stateMutability": "view",
      "type": "function"
    },
    {
      "inputs": [],
      "name": "closeSale",
      "outputs": [],
      "stateMutability": "nonpayable",
      "type": "function"
    },
    {
      "inputs": [
        {
          "internalType": "address",
          "name": "addy",
          "type": "address"
        }
      ],
      "name": "confirmOwnership",
      "outputs": [
        {
          "internalType": "bool",
          "name": "",
          "type": "bool"
        }
      ],
      "stateMutability": "view",
      "type": "function"
    },
    {
      "inputs": [
        {
          "internalType": "uint256",
          "name": "tokenId",
          "type": "uint256"
        }
      ],
      "name": "getApproved",
      "outputs": [
        {
          "internalType": "address",
          "name": "",
          "type": "address"
        }
      ],
      "stateMutability": "view",
      "type": "function"
    },
    {
      "inputs": [
        {
          "internalType": "address",
          "name": "",
          "type": "address"
        },
        {
          "internalType": "uint256",
          "name": "",
          "type": "uint256"
        }
      ],
      "name": "holderTokenIDs",
      "outputs": [
        {
          "internalType": "uint256",
          "name": "",
          "type": "uint256"
        }
      ],
      "stateMutability": "view",
      "type": "function"
    },
    {
      "inputs": [
        {
          "internalType": "address",
          "name": "owner",
          "type": "address"
        },
        {
          "internalType": "address",
          "name": "operator",
          "type": "address"
        }
      ],
      "name": "isApprovedForAll",
      "outputs": [
        {
          "internalType": "bool",
          "name": "",
          "type": "bool"
        }
      ],
      "stateMutability": "view",
      "type": "function"
    },
    {
      "inputs": [],
      "name": "mint",
      "outputs": [],
      "stateMutability": "payable",
      "type": "function"
    },
    {
      "inputs": [],
      "name": "mintPrice",
      "outputs": [
        {
          "internalType": "uint256",
          "name": "",
          "type": "uint256"
        }
      ],
      "stateMutability": "view",
      "type": "function"
    },
    {
      "inputs": [],
      "name": "name",
      "outputs": [
        {
          "internalType": "string",
          "name": "",
          "type": "string"
        }
      ],
      "stateMutability": "view",
      "type": "function"
    },
    {
      "inputs": [],
      "name": "openSale",
      "outputs": [],
      "stateMutability": "nonpayable",
      "type": "function"
    },
    {
      "inputs": [],
      "name": "owner",
      "outputs": [
        {
          "internalType": "address",
          "name": "",
          "type": "address"
        }
      ],
      "stateMutability": "view",
      "type": "function"
    },
    {
      "inputs": [
        {
          "internalType": "uint256",
          "name": "tokenId",
          "type": "uint256"
        }
      ],
      "name": "ownerOf",
      "outputs": [
        {
          "internalType": "address",
          "name": "",
          "type": "address"
        }
      ],
      "stateMutability": "view",
      "type": "function"
    },
    {
      "inputs": [],
      "name": "renounceOwnership",
      "outputs": [],
      "stateMutability": "nonpayable",
      "type": "function"
    },
    {
      "inputs": [
        {
          "internalType": "address",
          "name": "from",
          "type": "address"
        },
        {
          "internalType": "address",
          "name": "to",
          "type": "address"
        },
        {
          "internalType": "uint256",
          "name": "tokenId",
          "type": "uint256"
        }
      ],
      "name": "safeTransferFrom",
      "outputs": [],
      "stateMutability": "nonpayable",
      "type": "function"
    },
    {
      "inputs": [
        {
          "internalType": "address",
          "name": "from",
          "type": "address"
        },
        {
          "internalType": "address",
          "name": "to",
          "type": "address"
        },
        {
          "internalType": "uint256",
          "name": "tokenId",
          "type": "uint256"
        },
        {
          "internalType": "bytes",
          "name": "data",
          "type": "bytes"
        }
      ],
      "name": "safeTransferFrom",
      "outputs": [],
      "stateMutability": "nonpayable",
      "type": "function"
    },
    {
      "inputs": [],
      "name": "saleIsActive",
      "outputs": [
        {
          "internalType": "bool",
          "name": "",
          "type": "bool"
        }
      ],
      "stateMutability": "view",
      "type": "function"
    },
    {
      "inputs": [
        {
          "internalType": "address",
          "name": "operator",
          "type": "address"
        },
        {
          "internalType": "bool",
          "name": "approved",
          "type": "bool"
        }
      ],
      "name": "setApprovalForAll",
      "outputs": [],
      "stateMutability": "nonpayable",
      "type": "function"
    },
    {
      "inputs": [
        {
          "internalType": "bytes4",
          "name": "interfaceId",
          "type": "bytes4"
        }
      ],
      "name": "supportsInterface",
      "outputs": [
        {
          "internalType": "bool",
          "name": "",
          "type": "bool"
        }
      ],
      "stateMutability": "view",
      "type": "function"
    },
    {
      "inputs": [],
      "name": "symbol",
      "outputs": [
        {
          "internalType": "string",
          "name": "",
          "type": "string"
        }
      ],
      "stateMutability": "view",
      "type": "function"
    },
    {
      "inputs": [
        {
          "internalType": "uint256",
          "name": "tokenId",
          "type": "uint256"
        }
      ],
      "name": "tokenURI",
      "outputs": [
        {
          "internalType": "string",
          "name": "",
          "type": "string"
        }
      ],
      "stateMutability": "view",
      "type": "function"
    },
    {
      "inputs": [],
      "name": "totalTicketCount",
      "outputs": [
        {
          "internalType": "uint256",
          "name": "",
          "type": "uint256"
        }
      ],
      "stateMutability": "view",
      "type": "function"
    },
    {
      "inputs": [],
      "name": "totalTickets",
      "outputs": [
        {
          "internalType": "uint256",
          "name": "",
          "type": "uint256"
        }
      ],
      "stateMutability": "view",
      "type": "function"
    },
    {
      "inputs": [
        {
          "internalType": "address",
          "name": "from",
          "type": "address"
        },
        {
          "internalType": "address",
          "name": "to",
          "type": "address"
        },
        {
          "internalType": "uint256",
          "name": "tokenId",
          "type": "uint256"
        }
      ],
      "name": "transferFrom",
      "outputs": [],
      "stateMutability": "nonpayable",
      "type": "function"
    },
    {
      "inputs": [
        {
          "internalType": "address",
          "name": "newOwner",
          "type": "address"
        }
      ],
      "name": "transferOwnership",
      "outputs": [],
      "stateMutability": "nonpayable",
      "type": "function"
    }
  ],
  "bytecode": "0x60806040526009805460ff19169055600a808055600b5567011c37937e080000600c553480156200002f57600080fd5b50604080518082018252600581526409c8ca8d2f60db1b60208083019182528351808501909452600484526309c8ca8b60e31b9084015281519192916200007991600091620001c8565b5080516200008f906001906020840190620001c8565b505050620000ac620000a6620000f560201b60201c565b620000f9565b620000c360086200014b60201b62000d6e1760201c565b620000ef620000de60086200015460201b62000d771760201c565b6200015860201b62000d7b1760201c565b620002ab565b3390565b600780546001600160a01b038381166001600160a01b0319831681179093556040519116919082907f8be0079c531659141344cd1fd0a4f28419497f9722a3daafe3b4186f6b6457e090600090a35050565b80546001019055565b5490565b620001a4816040516024016200017091815260200190565b60408051601f198184030181529190526020810180516001600160e01b0390811663f82c50f160e01b17909152620001a716565b50565b80516a636f6e736f6c652e6c6f67602083016000808483855afa5050505050565b828054620001d6906200026e565b90600052602060002090601f016020900481019282620001fa576000855562000245565b82601f106200021557805160ff191683800117855562000245565b8280016001018555821562000245579182015b828111156200024557825182559160200191906001019062000228565b506200025392915062000257565b5090565b5b8082111562000253576000815560010162000258565b600181811c908216806200028357607f821691505b60208210811415620002a557634e487b7160e01b600052602260045260246000fd5b50919050565b61214380620002bb6000396000f3fe6080604052600436106101c25760003560e01c806370a08231116100f7578063b88d4fde11610095578063e985e9c511610064578063e985e9c5146104db578063eb8d244414610524578063ee55efee1461053e578063f2fde38b1461055357600080fd5b8063b88d4fde14610465578063c87b56dd14610485578063d9a59e33146104a5578063dd11247e146104c557600080fd5b806382ac0bb8116100d157806382ac0bb8146103f25780638da5cb5b1461041257806395d89b4114610430578063a22cb4651461044557600080fd5b806370a0823114610385578063715018a6146103a557806380f2abe3146103ba57600080fd5b80631acc9b62116101645780633d721ecd1161013e5780633d721ecd1461031a57806342842e0e1461032f5780636352211e1461034f5780636817c76c1461036f57600080fd5b80631acc9b62146102b457806323b872dd146102e45780633cfa7e011461030457600080fd5b8063095ea7b3116101a0578063095ea7b3146102565780631249c58b1461027857806314558fab14610280578063167ff46f1461029f57600080fd5b806301ffc9a7146101c757806306fdde03146101fc578063081812fc1461021e575b600080fd5b3480156101d357600080fd5b506101e76101e2366004611b10565b610573565b60405190151581526020015b60405180910390f35b34801561020857600080fd5b506102116105c5565b6040516101f39190611eca565b34801561022a57600080fd5b5061023e610239366004611b48565b610657565b6040516001600160a01b0390911681526020016101f3565b34801561026257600080fd5b50610276610271366004611ae7565b61067e565b005b610276610799565b34801561028c57600080fd5b50600a545b6040519081526020016101f3565b3480156102ab57600080fd5b50610276610946565b3480156102c057600080fd5b506101e76102cf366004611951565b600e6020526000908152604090205460ff1681565b3480156102f057600080fd5b506102766102ff36600461199d565b61095d565b34801561031057600080fd5b50610291600b5481565b34801561032657600080fd5b50600b54610291565b34801561033b57600080fd5b5061027661034a36600461199d565b61098e565b34801561035b57600080fd5b5061023e61036a366004611b48565b6109a9565b34801561037b57600080fd5b50610291600c5481565b34801561039157600080fd5b506102916103a0366004611951565b610a09565b3480156103b157600080fd5b50610276610a8f565b3480156103c657600080fd5b506101e76103d5366004611951565b6001600160a01b03166000908152600d6020526040902054151590565b3480156103fe57600080fd5b5061029161040d366004611ae7565b610aa3565b34801561041e57600080fd5b506007546001600160a01b031661023e565b34801561043c57600080fd5b50610211610ad4565b34801561045157600080fd5b50610276610460366004611aad565b610ae3565b34801561047157600080fd5b506102766104803660046119d8565b610af2565b34801561049157600080fd5b506102116104a0366004611b48565b610b2a565b3480156104b157600080fd5b506102766104c0366004611951565b610c3b565b3480156104d157600080fd5b50610291600a5481565b3480156104e757600080fd5b506101e76104f636600461196b565b6001600160a01b03918216600090815260056020908152604080832093909416825291909152205460ff1690565b34801561053057600080fd5b506009546101e79060ff1681565b34801561054a57600080fd5b50610276610ce1565b34801561055f57600080fd5b5061027661056e366004611951565b610cf5565b60006001600160e01b031982166380ac58cd60e01b14806105a457506001600160e01b03198216635b5e139f60e01b145b806105bf57506301ffc9a760e01b6001600160e01b03198316145b92915050565b6060600080546105d49061200b565b80601f01602080910402602001604051908101604052809291908181526020018280546106009061200b565b801561064d5780601f106106225761010080835404028352916020019161064d565b820191906000526020600020905b81548152906001019060200180831161063057829003601f168201915b5050505050905090565b600061066282610dc0565b506000908152600460205260409020546001600160a01b031690565b6000610689826109a9565b9050806001600160a01b0316836001600160a01b031614156106fc5760405162461bcd60e51b815260206004820152602160248201527f4552433732313a20617070726f76616c20746f2063757272656e74206f776e656044820152603960f91b60648201526084015b60405180910390fd5b336001600160a01b0382161480610718575061071881336104f6565b61078a5760405162461bcd60e51b815260206004820152603e60248201527f4552433732313a20617070726f76652063616c6c6572206973206e6f7420746f60448201527f6b656e206f776e6572206e6f7220617070726f76656420666f7220616c6c000060648201526084016106f3565b6107948383610e1f565b505050565b6000600b54116107e05760405162461bcd60e51b81526020600482015260126024820152714e6f7420656e6f756768207469636b65747360701b60448201526064016106f3565b600c543410156108245760405162461bcd60e51b815260206004820152600f60248201526e4e6f7420656e6f756768204554482160881b60448201526064016106f3565b60095460ff166108765760405162461bcd60e51b815260206004820152601860248201527f5469636b65747320617265206e6f74206f6e2073616c6521000000000000000060448201526064016106f3565b60006108b061088c61088760085490565b610e8d565b60405160200161089c9190611d69565b604051602081830303815290604052610fa7565b90506000816040516020016108c59190611c01565b60405160208183030381529060405290506108e8336108e360085490565b611109565b6108fa6108f460085490565b82611123565b336000908152600d6020526040902060085481546001810183556000928352602090922090910155610930600880546001019055565b6001600b5461093f9190611fc8565b600b555050565b61094e6111bd565b6009805460ff19166001179055565b6109673382611217565b6109835760405162461bcd60e51b81526004016106f390611f2f565b610794838383611295565b61079483838360405180602001604052806000815250610af2565b6000818152600260205260408120546001600160a01b0316806105bf5760405162461bcd60e51b8152602060048201526018602482015277115490cdcc8c4e881a5b9d985b1a59081d1bdad95b88125160421b60448201526064016106f3565b60006001600160a01b038216610a735760405162461bcd60e51b815260206004820152602960248201527f4552433732313a2061646472657373207a65726f206973206e6f7420612076616044820152683634b21037bbb732b960b91b60648201526084016106f3565b506001600160a01b031660009081526003602052604090205490565b610a976111bd565b610aa16000611431565b565b600d6020528160005260406000208181548110610abf57600080fd5b90600052602060002001600091509150505481565b6060600180546105d49061200b565b610aee338383611483565b5050565b610afc3383611217565b610b185760405162461bcd60e51b81526004016106f390611f2f565b610b2484848484611552565b50505050565b6060610b3582610dc0565b60008281526006602052604081208054610b4e9061200b565b80601f0160208091040260200160405190810160405280929190818152602001828054610b7a9061200b565b8015610bc75780601f10610b9c57610100808354040283529160200191610bc7565b820191906000526020600020905b815481529060010190602001808311610baa57829003601f168201915b505050505090506000610be560408051602081019091526000815290565b9050805160001415610bf8575092915050565b815115610c2a578082604051602001610c12929190611bd2565b60405160208183030381529060405292505050919050565b610c3384611585565b949350505050565b6001600160a01b0381166000908152600e60209081526040808320805460ff19166001179055600d909152812080548290610c8657634e487b7160e01b600052603260045260246000fd5b906000526020600020015490506000610cb1610ca183610e8d565b60405160200161089c9190611c46565b9050600081604051602001610cc69190611c01565b6040516020818303038152906040529050610b248382611123565b610ce96111bd565b6009805460ff19169055565b610cfd6111bd565b6001600160a01b038116610d625760405162461bcd60e51b815260206004820152602660248201527f4f776e61626c653a206e6577206f776e657220697320746865207a65726f206160448201526564647265737360d01b60648201526084016106f3565b610d6b81611431565b50565b80546001019055565b5490565b610d6b81604051602401610d9191815260200190565b60408051601f198184030181529190526020810180516001600160e01b031663f82c50f160e01b1790526115f9565b6000818152600260205260409020546001600160a01b0316610d6b5760405162461bcd60e51b8152602060048201526018602482015277115490cdcc8c4e881a5b9d985b1a59081d1bdad95b88125160421b60448201526064016106f3565b600081815260046020526040902080546001600160a01b0319166001600160a01b0384169081179091558190610e54826109a9565b6001600160a01b03167f8c5be1e5ebec7d5bd14f71427d1e84f3dd0314c0f7b2291e5b200ac8c7c3b92560405160405180910390a45050565b606081610eb15750506040805180820190915260018152600360fc1b602082015290565b8160005b8115610edb5780610ec581612046565b9150610ed49050600a83611f95565b9150610eb5565b60008167ffffffffffffffff811115610f0457634e487b7160e01b600052604160045260246000fd5b6040519080825280601f01601f191660200182016040528015610f2e576020820181803683370190505b5090505b8415610c3357610f43600183611fc8565b9150610f50600a86612061565b610f5b906030611f7d565b60f81b818381518110610f7e57634e487b7160e01b600052603260045260246000fd5b60200101906001600160f81b031916908160001a905350610fa0600a86611f95565b9450610f32565b6060815160001415610fc757505060408051602081019091526000815290565b60006040518060600160405280604081526020016120ce6040913990506000600384516002610ff69190611f7d565b6110009190611f95565b61100b906004611fa9565b67ffffffffffffffff81111561103157634e487b7160e01b600052604160045260246000fd5b6040519080825280601f01601f19166020018201604052801561105b576020820181803683370190505b509050600182016020820185865187015b808210156110c7576003820191508151603f8160121c168501518453600184019350603f81600c1c168501518453600184019350603f8160061c168501518453600184019350603f811685015184535060018301925061106c565b50506003865106600181146110e357600281146110f6576110fe565b603d6001830353603d60028303536110fe565b603d60018303535b509195945050505050565b610aee82826040518060200160405280600081525061161a565b6000828152600260205260409020546001600160a01b031661119e5760405162461bcd60e51b815260206004820152602e60248201527f45524337323155524953746f726167653a2055524920736574206f66206e6f6e60448201526d32bc34b9ba32b73a103a37b5b2b760911b60648201526084016106f3565b600082815260066020908152604090912082516107949284019061189c565b6007546001600160a01b03163314610aa15760405162461bcd60e51b815260206004820181905260248201527f4f776e61626c653a2063616c6c6572206973206e6f7420746865206f776e657260448201526064016106f3565b600080611223836109a9565b9050806001600160a01b0316846001600160a01b0316148061126a57506001600160a01b0380821660009081526005602090815260408083209388168352929052205460ff165b80610c335750836001600160a01b031661128384610657565b6001600160a01b031614949350505050565b826001600160a01b03166112a8826109a9565b6001600160a01b03161461130c5760405162461bcd60e51b815260206004820152602560248201527f4552433732313a207472616e736665722066726f6d20696e636f72726563742060448201526437bbb732b960d91b60648201526084016106f3565b6001600160a01b03821661136e5760405162461bcd60e51b8152602060048201526024808201527f4552433732313a207472616e7366657220746f20746865207a65726f206164646044820152637265737360e01b60648201526084016106f3565b611379600082610e1f565b6001600160a01b03831660009081526003602052604081208054600192906113a2908490611fc8565b90915550506001600160a01b03821660009081526003602052604081208054600192906113d0908490611f7d565b909155505060008181526002602052604080822080546001600160a01b0319166001600160a01b0386811691821790925591518493918716917fddf252ad1be2c89b69c2b068fc378daa952ba7f163c4a11628f55a4df523b3ef91a4505050565b600780546001600160a01b038381166001600160a01b0319831681179093556040519116919082907f8be0079c531659141344cd1fd0a4f28419497f9722a3daafe3b4186f6b6457e090600090a35050565b816001600160a01b0316836001600160a01b031614156114e55760405162461bcd60e51b815260206004820152601960248201527f4552433732313a20617070726f766520746f2063616c6c65720000000000000060448201526064016106f3565b6001600160a01b03838116600081815260056020908152604080832094871680845294825291829020805460ff191686151590811790915591519182527f17307eab39ab6107e8899845ad3d59bd9653f200f220920489ca2b5937696c31910160405180910390a3505050565b61155d848484611295565b6115698484848461164d565b610b245760405162461bcd60e51b81526004016106f390611edd565b606061159082610dc0565b60006115a760408051602081019091526000815290565b905060008151116115c757604051806020016040528060008152506115f2565b806115d184610e8d565b6040516020016115e2929190611bd2565b6040516020818303038152906040525b9392505050565b80516a636f6e736f6c652e6c6f67602083016000808483855afa5050505050565b611624838361175a565b611631600084848461164d565b6107945760405162461bcd60e51b81526004016106f390611edd565b60006001600160a01b0384163b1561174f57604051630a85bd0160e11b81526001600160a01b0385169063150b7a0290611691903390899088908890600401611e8d565b602060405180830381600087803b1580156116ab57600080fd5b505af19250505080156116db575060408051601f3d908101601f191682019092526116d891810190611b2c565b60015b611735573d808015611709576040519150601f19603f3d011682016040523d82523d6000602084013e61170e565b606091505b50805161172d5760405162461bcd60e51b81526004016106f390611edd565b805181602001fd5b6001600160e01b031916630a85bd0160e11b149050610c33565b506001949350505050565b6001600160a01b0382166117b05760405162461bcd60e51b815260206004820181905260248201527f4552433732313a206d696e7420746f20746865207a65726f206164647265737360448201526064016106f3565b6000818152600260205260409020546001600160a01b0316156118155760405162461bcd60e51b815260206004820152601c60248201527f4552433732313a20746f6b656e20616c7265616479206d696e7465640000000060448201526064016106f3565b6001600160a01b038216600090815260036020526040812080546001929061183e908490611f7d565b909155505060008181526002602052604080822080546001600160a01b0319166001600160a01b03861690811790915590518392907fddf252ad1be2c89b69c2b068fc378daa952ba7f163c4a11628f55a4df523b3ef908290a45050565b8280546118a89061200b565b90600052602060002090601f0160209004810192826118ca5760008555611910565b82601f106118e357805160ff1916838001178555611910565b82800160010185558215611910579182015b828111156119105782518255916020019190600101906118f5565b5061191c929150611920565b5090565b5b8082111561191c5760008155600101611921565b80356001600160a01b038116811461194c57600080fd5b919050565b600060208284031215611962578081fd5b6115f282611935565b6000806040838503121561197d578081fd5b61198683611935565b915061199460208401611935565b90509250929050565b6000806000606084860312156119b1578081fd5b6119ba84611935565b92506119c860208501611935565b9150604084013590509250925092565b600080600080608085870312156119ed578081fd5b6119f685611935565b9350611a0460208601611935565b925060408501359150606085013567ffffffffffffffff80821115611a27578283fd5b818701915087601f830112611a3a578283fd5b813581811115611a4c57611a4c6120a1565b604051601f8201601f19908116603f01168101908382118183101715611a7457611a746120a1565b816040528281528a6020848701011115611a8c578586fd5b82602086016020830137918201602001949094529598949750929550505050565b60008060408385031215611abf578182fd5b611ac883611935565b915060208301358015158114611adc578182fd5b809150509250929050565b60008060408385031215611af9578182fd5b611b0283611935565b946020939093013593505050565b600060208284031215611b21578081fd5b81356115f2816120b7565b600060208284031215611b3d578081fd5b81516115f2816120b7565b600060208284031215611b59578081fd5b5035919050565b60008151808452611b78816020860160208601611fdf565b601f01601f19169290920160200192915050565b7f222c20226465736372697074696f6e223a202241204e46542d706f77657265648152730103a34b1b5b2ba34b7339039bcb9ba32b69116160651b602082015260340190565b60008351611be4818460208801611fdf565b835190830190611bf8818360208801611fdf565b01949350505050565b7f646174613a6170706c69636174696f6e2f6a736f6e3b6261736536342c000000815260008251611c3981601d850160208701611fdf565b91909101601d0192915050565b717b20226e616d65223a20224e46546978202360701b81528151600090611c74816012850160208701611fdf565b611c82601282850101611b8c565b7f22747261697473223a205b7b202274726169745f74797065223a20224368656381527f6b656420496e222c202276616c7565223a20227472756522207d2c207b20227460208201527f726169745f74797065223a2022507572636861736564222c202276616c75652260408201526c01d10113a393ab291103eae961609d1b60608201527f22696d616765223a2022697066733a2f2f516d54484e6b423356777541643763606d8201527f4c463176567a756d5831386f7366774c4c48694c6736515333366b6758506322608d82015261207d60f01b60ad82015260af01949350505050565b717b20226e616d65223a20224e46546978202360701b81528151600090611d97816012850160208701611fdf565b611da5601282850101611b8c565b7f22747261697473223a205b7b202274726169745f74797065223a20224368656381527f6b656420496e222c202276616c7565223a202266616c736522207d2c207b202260208201527f74726169745f74797065223a2022507572636861736564222c202276616c756560408201526d0111d10113a393ab291103eae96160951b60608201527f22696d616765223a2022697066733a2f2f516d507755505148464b46765a6a6d606e8201527f79743373616d435154507962326d72366d4e6f754d6338347857647946486a22608e82015261207d60f01b60ae82015260b001949350505050565b6001600160a01b0385811682528416602082015260408101839052608060608201819052600090611ec090830184611b60565b9695505050505050565b6020815260006115f26020830184611b60565b60208082526032908201527f4552433732313a207472616e7366657220746f206e6f6e20455243373231526560408201527131b2b4bb32b91034b6b83632b6b2b73a32b960711b606082015260800190565b6020808252602e908201527f4552433732313a2063616c6c6572206973206e6f7420746f6b656e206f776e6560408201526d1c881b9bdc88185c1c1c9bdd995960921b606082015260800190565b60008219821115611f9057611f90612075565b500190565b600082611fa457611fa461208b565b500490565b6000816000190483118215151615611fc357611fc3612075565b500290565b600082821015611fda57611fda612075565b500390565b60005b83811015611ffa578181015183820152602001611fe2565b83811115610b245750506000910152565b600181811c9082168061201f57607f821691505b6020821081141561204057634e487b7160e01b600052602260045260246000fd5b50919050565b600060001982141561205a5761205a612075565b5060010190565b6000826120705761207061208b565b500690565b634e487b7160e01b600052601160045260246000fd5b634e487b7160e01b600052601260045260246000fd5b634e487b7160e01b600052604160045260246000fd5b6001600160e01b031981168114610d6b57600080fdfe4142434445464748494a4b4c4d4e4f505152535455565758595a6162636465666768696a6b6c6d6e6f707172737475767778797a303132333435363738392b2fa26469706673582212203bfbcca058497b85a6ddf9c3289352d4b70d9920b3c7aee3be954e47f7da37a664736f6c63430008040033",
  "linkReferences": {},
  "deployedLinkReferences": {}
}